:1020000000800020C5400000AD400000AD40000051
:1020100000000000000000000000000000000000C0
:10202000000000000000000000000000AD400000C3
:102030000000000000000000AD4000001941000059
:10204000AD400000AD400000AD400000AD400000DC
:10205000CD3E0000AD400000AD400000B1400000AA
:10206000AD400000AD400000AD400000AD400000BC
:10207000AD400000AD4000002D230000AD40000049
:10208000AD400000AD400000AD400000AD4000009C
:1020900000000000AD400000AD400000AD40000079
:1020A000AD400000AD400000AD400000AD4000007C
:1020B0000000000010B5064C2378002B07D1054B1B
:1020C000002B02D0044800E000BF0123237010BDA4
:1020D000900000200000000064510000044B10B587
:1020E000002B03D00349044800E000BF10BDC046E8
:1020F000000000009400002064510000A5221F4B46
:1021000070B51A721E4E1F4B32681B689A4220D05F
:102110001D4D1E49280001F0B5FF72B61C4B3068FA
:1021200050211C5C013002F0A7FC316062B61949F5
:10213000280001F096FF2100280001F0ADFF722C6D
:1021400008D10021080002F02BFA0121080002F05A
:1021500027FA70BD672C06D10121002002F020FA79
:1021600000210120F3E7622C02D101210020EAE7DF
:102170006E2CEED100210800F0E7C04600100040B0
:1021800000010020FC00002078030020F24C000039
:10219000AC000020084D000070B5060072B60A4C75
:1021A00050212568681C02F067FC084B1B689942A7
:1021B00004D0074B21605E5562B670BD05490648E4
:1021C00001F060FFF8E7C046FC000020000100209D
:1021D000AC000020E84C00007803002010B504009B
:1021E00001F0AEFF6834201A01F0FCFF10BD0000C2
:1021F000F8B500251C491D4801F044FF222001F0DC
:10220000F1FF082701F09CFF2C00FFF7E7FF0520F6
:1022100002F0F2F96408060001F092FF012E05D1E8
:1022200080235B421C437540E4B2EDB2013F002FB6
:10223000EBD1FFF7D3FF052002F0DEF9070001F034
:102240007FFF0600AF420BD12300623BDBB2102BB5
:1022500006D8074ADA40D30702D52000FFF79CFFD3
:102260003000FFF7BBFFF8BDD44C0000780300201E
:1022700021100100962170B5224C8901200000F048
:10228000F5F9200000F042FB0028FAD004221E4994
:10229000C020CA67C0211D4B49005A508000195800
:1022A0001B4C214019501A601A4B1B4A9A605A78ED
:1022B000D209FCD1194A5A605A78D209FCD118497E
:1022C00059800B21174B59709A70197802320A43C2
:1022D0001A70DC79E409FCD101255A7929002A43D6
:1022E0005A71200002F010F92900280002F00CF9C0
:1022F0002100052002F008F902220B49052001F017
:102300004DFD70BD7803002004E100E000E100E035
:10231000FFFF00FF000C0040050400000503110052
:102320000345000000100040F121000010B50248F4
:1023300001F079FC10BDC0460401002013B512491C
:10234000124800F03BF81249124800F037F81249E1
:10235000124800F033F81249124800F02FF81249E1
:10236000124800F02BF8124C1249200000F026F819
:1023700001230193023300930D220B3321000E48F9
:1023800001F0CAFB13BDC04600080042480300200C
:10239000000C0042500300200010004258030020AF
:1023A000001400426003002000180042680300206F
:1023B00070030020001C0042040100200023037170
:1023C000016070479446F0B59E1E721E96416246AB
:1023D000056892072F6836063A4332432A6007257C
:1023E00005AC24780068A4012940214342680024F8
:1023F000022B00D05C03114321434160F0BD30B596
:10240000C0250368AD031C6812052A402243C0247E
:102410000904A40221401143196003685A68144357
:102420005C6030BD0123026811680B4313600368D0
:102430001A68D207FCD4DA69D207F9D470470223AC
:10244000026811680B4313600268D3699B07FCD4D0
:1024500070470268137E9B0702D40379002BF9D1E1
:10246000002303717047002203685A837047036892
:10247000187E4007C00F70470368187EC009704778
:10248000802302685B42117E0B431376704703681A
:10249000588B8007C00F704702230268518B0B4393
:1024A000538370470368187EC007C00F70470368E6
:1024B000188DC0B2704703681A7ED207FCD589B266
:1024C00019850123037118007047012203689A756A
:1024D0007047012203681A75704700000368214A9B
:1024E00030B593422FD0204A93422FD01F4A9342B7
:1024F0002FD01F4A93422FD01E4A93422FD01E4AFC
:1025000093421FD10E2319220121032599401B4814
:10251000C024016099082B40AB40FC359D408900E8
:102520000918A4000859A843C0259D402B00034367
:102530000B518023DB011A43114B5A805A7852B257
:10254000002AFBDB30BD09231422DDE70A23152214
:10255000DAE70B231622D7E70C231722D4E70D2343
:102560001822D1E700080042000C0042001000428F
:102570000014004200180042001C004200E100E08C
:10258000000C0040F8B504000F0016001D00FFF716
:10259000A5FF2000FFF746FF1C21BB000B40710781
:1025A0002268090C0B431360842322689375012F62
:1025B0001AD11021012E00D008390C4B694318683C
:1025C000C00002F0E9F80722216802408B8952031B
:1025D000DB04DB0C13438B81226803049089DB0C42
:1025E000400B400318439081F8BDC0461000002006
:1025F0000020704770B50F26CB1D01390200324014
:10260000D5B22C0000093034092A00DD07341C70D3
:10261000013B8B42F2D170BD10B50C000B4B18681A
:10262000FFF7E8FF21000A4B08311868FFF7E2FFC7
:102630002100084B10311868FFF7DCFF2100064B22
:1026400018311868FFF7D6FF202010BD0CA08000BD
:1026500040A0800044A0800048A0800008B4024B45
:102660009C46103808BC6047192600007047704728
:102670003F20704713B56B460268D9710733546821
:1026800019000122A04716BD70B50A260B7892B03A
:102690006E44023305000B703C220021300002F032
:1026A00032FA394801AC06903848242107900620B8
:1026B00020776846364AA1742281364A364BA28179
:1026C000FD3AFF3A8018C177684623390630C17752
:1026D00068460730C17702A8C1770720F277032642
:1026E00008316944C87703A9CE7710212B366E4490
:1026F0003170092621851F3169440E700CA9053EF1
:102700000E7033212380022369440B7006360DA915
:102710000E7022493536A1863B216E44307010A8D8
:102720006274E27702703D3269446A440B70137040
:1027300040210022E37023716371A37341336B4422
:10274000218719705A702B7DC039A370A3726377EB
:102750000133DBB2A3776A7D0B200D00684415437B
:10276000C5773120684403703A23501C6B441870BD
:10277000412302320A436B441A7021004222084866
:1027800000F0FEFC12B070BD100104240206052406
:102790000904000001020000080B0000070500000A
:1027A000D403002008B4024B9C46103808BC604794
:1027B0008926000070B5027D0B790C0000259A4235
:1027C0000BD10B784E78A12B09D1212E05D10722F0
:1027D0001B491C4800F0D4FC0135280070BD212B9A
:1027E000FBD1202E22D107221549164800F00AFC01
:1027F0009622134BD200196891421DD1DB79DB0779
:102800001AD4FA2001F070FF00210E4800F0C0FD3C
:102810000125232EE1D1E378A2781B0213430A4A53
:1028200000210848136000F0B3FDD6E7222EEFD157
:102830008A78034BDA71DBE701F060FFE4E7C0461A
:1028400004000020D40300200000002008B4024B44
:102850009C46103808BC6047B527000010B5082218
:102860000021024802F04FF910BDC04604000020CC
:1028700010B5417D006A013100F0FCFA034B1B6882
:1028800001335A1E9341181810BDC0460C00002099
:1028900010B5417D006A023100F002FB10BD10B599
:1028A000417D006A023100F0C9FA10BD70B50D001B
:1028B000417D0400130002312A00006A00F0B6FBDB
:1028C000002801D10123636070BD000010B5054CE4
:1028D00023685A1C04D103685B6998470300206091
:1028E000180010BD0C000020074A0300106810B546
:1028F000411C03D001235B42136010BD597D186A4F
:10290000013100F043FBF8E70C00002010B501F0A6
:1029100011FCF423FF330024984207D9044B0A200A
:10292000DC79631E9C41E4B201F03AFC200010BD4A
:10293000040000200020704770477047FA239B0076
:1029400010B583600F4B0022C382030028338361DC
:102950000D4B04004260C2611800503323610830FF
:10296000631D21622060DA778323A362813BE362E7
:102970008033236301F03AFB2100103101F007FBA3
:10298000200010BD0302000074500000022110B5A9
:10299000094B1A68437D5B01D318FF339C7A2143AE
:1029A0009972437D0133DBB25B01D3180122FF33FF
:1029B000997A0A439A7210BD8C08002010B502491A
:1029C0000248FFF7BBFF10BDD403002078030020AE
:1029D000704710B5040001F039FC200010BD000064
:1029E000F0B5822919D1C3B2294D5A01AA189169AB
:1029F000284C80010C40C021890521439161264962
:102A0000083340187021506128685B011A5C8A43C2
:102A1000110030220A431A54F0BD0029FCD1C0260F
:102A2000C1B21B4C4B01E3189A681A4DB6052A40F7
:102A300032439A60194A800182185A600A000727B7
:102A4000246808325201115DB9430F000121394356
:102A500011559F6910493D4040182E439E615861B1
:102A60007020115D814308001021014311559968C0
:102A70000B48A218084080214903014399609968D6
:102A8000890B89039960402311790B431371C3E7C4
:102A90008C080020FFFFFF8F00040020C0050020ED
:102AA000FF3F00F0EFF3108303600123436072B631
:102AB00070470368002B02D162B6BFF36F8F704777
:102AC00073B5836D0400002B1BD10600A836357842
:102AD0006846FFF7E7FF019BEDB2013B02D3357873
:102AE000EDB2FAE768460193FFF7E3FF002D01D14D
:102AF000002076BD2300A4331868A0342368C01AD0
:102B0000F7E76846FFF7CEFF22000025019BF4326D
:102B1000013B02D31578EDB2FAE768460193FFF75F
:102B2000C8FF002DE4D02300F0331868EC34E5E74B
:102B300010B5436D4468DBB25A01A2189168094888
:102B400008330840802149030143916091685B018B
:102B5000890B890391602268D318402219790A43AE
:102B60001A7110BDFF3F00F0F7B5436D4268DBB24C
:102B7000190004000831106849014118C979C907D2
:102B800011D55B01D21893689B049B0C0CD12000DB
:102B9000FFF7CEFF63681A68636DDBB208335B0131
:102BA000D3187F22DA71F7BDE16D002923D121000E
:102BB000A4310B6023000125AC33E5656846536002
:102BC000FFF770FF260020002100019BA836013B83
:102BD000F430F5315A1C33D0357002785F1ED2B212
:102BE0000A700A78002A04D120000193FFF7A0FFA1
:102BF000E8E73B00EEE72100F0310B600023E365DE
:102C00002300603353606846FFF74CFF0125260020
:102C100020002100019BF436013BA830F5315A1CFD
:102C20000ED0357002785F1ED2B20A700A78002A80
:102C300004D120000193FFF77BFFE8E73B00EEE7BC
:102C400068460193FFF735FFA4E737B56B46DC1DF7
:102C500000230D00237001F0C9F9210001F054F99F
:102C60002B681818286020783EBD000000780028E6
:102C700010D00121084B1B681A898A431A81082247
:102C8000198B0A431A830422198B0A431A830022E0
:102C9000024B1A607047C0468C0800208408002050
:102CA00010B50F4A93699B0B9B0393611368022233
:102CB000FF331A729879823A02439A711A7A92070C
:102CC000FCD57F24074A2140937A0800A3431900CA
:102CD000802301439172917A5B420B43937210BD42
:102CE0008C0800200050004110B50C0001F07EF966
:102CF000210001F03CF9002804D1034A93699B0BA1
:102D00009B03936110BDC0468C080020F8B50D00F0
:102D1000832A19D1CBB23B4C5A01A21891693A4887
:102D2000AD010840C0218905014391613749206800
:102D30006D187021083355615B011A5C8A431100DC
:102D400040220A431A54F8BD022A55D1304A8B005A
:102D50009858002802D003685B699847F82001F072
:102D600071FA0400274E2B4B46600360402200217D
:102D7000083001F0C8FE22000023A032A36465657C
:102D8000E3642365A365E3655360D3641372136042
:102D900013654C3213725372FF222B0013405901FA
:102DA00071188868184F08330740C02080053843E1
:102DB0008860306807265B01195CAD00B1430E00E6
:102DC0000321314319542300616D606811404901AA
:102DD000411860334B60616D63680A401B685201A3
:102DE0009B180122FF33997A20000A439A72FFF759
:102DF0009FFE074B5C51A6E711002800FFF7F0FD8E
:102E0000A1E7C0468C080020FFFFFF8F00040020D0
:102E1000D8030020DC50000070B505000124064BEB
:102E2000A200D258002A06D0210028000134FFF762
:102E30006DFF0A2CF3D170BDAC0300200B4BCAB25E
:102E40000B488901C9185301C3185961996908329F
:102E5000890B89039961036852019A180223D3717F
:102E60005179823B0B4353717047C04600040020E8
:102E70008C080020084B8A00D05810B5002803D0D9
:102E800003689B68984710BDC9B2044B49015918A3
:102E900088688004800CF6E7D80300208C080020A6
:102EA00010B50C00FFF7E6FF00280CD0064BE4B28B
:102EB0001B68083464011C19802362795B42134348
:102EC00063710223E37110BD8C080020F0B51C0073
:102ED0002A4B85B01B6807000D000292002B4AD0D8
:102EE000274B8A00D058002808D0036822005B686E
:102EF000029998470400200005B0F0BD3800FFF7A4
:102F0000B9FF844204D929003800FFF7B3FF040059
:102F10000121EBB21B4E03935B010193F2189368FE
:102F20009B0B9B039360019A336802989B18FF33B5
:102F30005A7A0A435A72144BA901C918220001F0A7
:102F4000D9FD002CD7D029003800FFF793FF0028C7
:102F5000D1D14021039B326808335B01D318187923
:102F6000014319710121D971019BD318FF339A7A5A
:102F70000A439A72BFE701246442BCE78408002038
:102F8000D80300208C080020C005002013B56B4634
:102F9000DC1D22000123FFF799FF012801D12078D1
:102FA00016BD01204042FBE770B5CBB2124A134870
:102FB0005C0189018918021951609168104D08332C
:102FC0000D40802149032943402591609168890B78
:102FD0008903916001685A018A1816793543157181
:102FE00095796D06FCD55B01C918CB79DB07FCD55B
:102FF00000198068C0B270BDC00500208C08002098
:10300000FF3F00F070B50D0000211400FFF7CCFF6A
:10301000A04200D9200000230349A34203D0CA5C88
:10302000EA540133F9E770BDC0050020F0B51E0079
:103030003A4B85B01B680F000192002B35D08023DE
:10304000DB019E4231D80025354B8A01D31802930B
:10305000002E2CD0334B1B680393FF233B401C00F6
:1030600000930834039B64011C19A379DB0921D068
:103070002D4B2E49186801F08FFB2D4B172158431B
:1030800001F08AFB2B4BE279920713D4DA5D002A18
:1030900001D10138F7D20122DA55009B5A01214BA8
:1030A0009B189A69920B92039A6101256D42280040
:1030B00005B0F0BD00221F4B3400DA553F2E09D970
:1030C000009B40245A01174B9B18802299691206D5
:1030D0000A439A6122000199029801F00BFD009BBE
:1030E000A1045A010F4B890C9B18029A2D195A61A1
:1030F0009A69361B920B92030A439A61009B039ACA
:1031000008335B01D3180222DA715979823A0A43F3
:103110005A71019B1B1901939AE7C046840800204D
:10312000000400208C0800201000002040420F0006
:1031300070110100F503002070B50D001C000D4B4F
:10314000AE01F61811003000220001F0D3FCEDB200
:1031500009496D014D196E61AB69084A20001340A1
:10316000AB61AB69A2049B0B920C9B031343AB6155
:1031700070BDC046000400208C080020FF3F00F016
:10318000F7B5104B01901B780F001500002B0CD1E8
:103190000D4B16001C78002C09D00C4E0C483488BE
:1031A0002018641901F0A6FC34802800FEBD002E12
:1031B000FBD03A19330000210198FFF7BDFF241816
:1031C000361AF4E7800700208108002082080020DA
:1031D00081070020F8B50F0016000024012A26D927
:1031E000100001F073FC0500380001F04FFD0323CF
:1031F00002220130400028706B7096420DD9397858
:1032000000290AD0531CDBB20137A9549E4203D0D7
:103210000232EC54D2B2F0E7320029000548FFF741
:10322000AFFF441EA041C4B2280001F059FC2000A9
:10323000F8BDC046D4030020F0B50024012685B0B7
:10324000184B0F0069461E7005000094FFF7FDFC47
:10325000154B01A90B806A3BFF3BCB715A330B72B4
:10326000009B8C7109334B800E4B4E7108711C70A2
:103270003A00092F0FD00D4F09223E700C4E280046
:1032800000943480FFF77CFF69462800FFF7DDFCDF
:10329000328808493C702800FFF772FF012005B012
:1032A000F0BDC04680070020090200008108002010
:1032B000820800208107002070B5CE7892B005000A
:1032C0000C00022E0BD18B79C9792C4809021943C5
:1032D000FFF7B2FF411E8841C0B212B070BD00F0CE
:1032E00085FE210000F024FE002803D0C117081A33
:1032F000C00FF2E7012E0ED1E279A37912021A4330
:103300001F49112A13D8D2B2002A10D02800FFF783
:1033100037FF0120E1E7032EDFD1A378002B08D18E
:10332000E279A37912021A431649032AEBD90A78E3
:10333000ECE7022B08D1E279A379120212491A4371
:103340002800FFF747FFC8E7012B05D1E279A379F1
:1033500012021A430D49F3E7032BBED141220100AB
:1033600001A801F0D0FB00F041FE01A900F0F0FD42
:10337000E279A37912021A4301A9E1E7D4030020FC
:103380001851000008510000F85000000C510000D6
:10339000CBB204495B01C9188B699B0B9B038B6102
:1033A0007047C0468C08002037B5050048780C00EF
:1033B0000B2810D801F0E6F9061B0F2B0F404561D2
:1033C000494C5A5D097801AA002906D102231180CF
:1033D0002800FFF7B1FE01203EBD00231380284BDB
:1033E0001B78012B00D1137002230021F0E78A78AB
:1033F0000023012A03D101AA1380224BF0E7204ABF
:103400001370214A93699B0B9B039361E3E78C78CC
:10341000012C06D100211B4B01AA1C701170230046
:10342000D6E70120002CD7D1154B174A18709369A5
:103430009B0B9B039361CFE789782800FFF730FC53
:10344000C9E72800FFF738FFC6E701230F4ACCE79A
:103450000B780020DB06BFD12800FFF7DDFCA27847
:103460000A4B0B481A60FFF791FACAE70123094A91
:10347000BBE78A78074B1A60C3E70020ACE7C04679
:10348000F4030020FC0300208C08002084080020A6
:1034900078030020880800203A4BF7B51E78050015
:1034A000002E5FD1384C23689A8B12070DD5082265
:1034B00031009A833000FFF793FA10222368FF331C
:1034C000997A0A439A72314B1E6023689A8B52078D
:1034D00001D504229A83FF331A7A920603D520225B
:1034E000597A0A435A721A7AD20623D569460800D5
:1034F000274AC0CAC0C0A268920B9203A2604022B1
:10350000587902435A7160230A7828001A422AD156
:10351000FFF74AFF2368FF33002827D080229979DC
:1035200052420A439A711A7A520603D54022597AB6
:103530000A435A727F2601252368FF331E722F002B
:10354000236808377F01DB19DB79002B07D0114B8B
:10355000AA00D05800280DD003681B689847013591
:10356000082DECD1F7BDFFF7BFFBD3E720210A4AB6
:103570009171D8E729000948FFF7DFF92368DF19BF
:10358000FE71ECE7810800208C08002084080020F0
:10359000C0050020D8030020FF5000417803002020
:1035A00010B50248FFF778FF10BDC046D4030020D5
:1035B00080235B000380002343600733037270475E
:1035C00083000148C0187047AC030020836C402B77
:1035D00009D03F22036CC154036C013313400364D0
:1035E000836C013383647047F7B505006846FFF7C5
:1035F00059FA00264022019B013B02D32E6D961BF7
:10360000FAE768460193FFF754FAAB6D6846002B62
:103610004FD1FFF747FA2900019BA831013B5A1C03
:103620000CD00C785A1EE4B2002C05D168460193E8
:10363000FFF73FFA2000FEBD1300F0E76846019354
:103640000024FFF736FA2A002900A0321368A431BB
:10365000B4420ED0086898420BD92800591CEB18C8
:103660001160603319780830C9B2FFF7AFFF013439
:10367000E9E709689942DDD1002313600133AB65A6
:103680006846FFF70FFA2F002A000021019BA83798
:10369000013BF532581CC9D0397010785E1E0028E5
:1036A00005D0117028000193FFF742FAEBE73300D1
:1036B000F0E7FFF7F7F92900019BF431013B5A1CB1
:1036C00006D00C785A1EE4B2002CAFD01300F6E7F7
:1036D000684601930024FFF7ECF92A002900EC3238
:1036E0001368F031B44202D0086898421DD80968C6
:1036F00099429FD1002368461360AB65FFF7D2F96A
:103700002F002A000021019BF437013BF532581CA1
:1037100000D18BE7397010785E1E002811D011702F
:1037200028000193FFF704FAEAE72800591CEB1878
:103730001160AC3319780830C9B2FFF747FF013484
:10374000CBE73300E3E710B50400FFF74DFF206D32
:1037500010BD10B50400FFF747FF236D002B03D009
:10376000E36CE418207A10BD01204042FBE7F7B576
:1037700017000E000400FFF737FF6846FFF792F9C5
:103780003F2200259446019B013B5A1C19D0BD42A3
:1037900015D2226D002A12D00121226D4942002A41
:1037A0000AD06046E26CA218117AE26C0132024043
:1037B000E264226D013A226571550135E7E7013B6C
:1037C000E3E768460193FFF774F92800FEBD0000A7
:1037D000014B024A1A6070478C08002000500041DB
:1037E0002023F7B5474A0500D1690F200B43D36169
:1037F000012245490B7813430B70444B19788143E0
:10380000197006211C782143197041490C78224314
:103810000A701A7802401A70602219780A431A70E6
:103820003C4B3D4A5A805F78FF09FCD13B4800F091
:103830007BFC01233A4C3B4E2268300011780B434D
:10384000137080223900520001F05DF922689378EC
:10385000DB07FCD456621F26334B1B68590B980CB0
:103860009B01314030405B0FB14200D105211F2840
:1038700000D10238072B00D1043B31408901178D5C
:1038800001912A4930400F40019939431185118D2A
:103890000700B143080038431085118D1803244BED
:1038A0007F260B4003430C2013850823D1788143E6
:1038B0000B430321D3702268D3788B4301390B4328
:1038C000D37022681378334013700423226816786B
:1038D000334313702268C1241389A400834315481D
:1038E000138103591B021B0A0351802303601378C1
:1038F00011481943012311702B700021FEF7B6FE09
:10390000F7BDC04600040040584400413C4400411B
:1039100059440041000C004006400000A135000061
:103920008C08002090080020246080003FF8FFFFF2
:10393000FF8FFFFF00E100E07803002001207047C7
:1039400010B50368014A1B6A984710BD13040000B4
:10395000FC30006A704787239B00C018C368802032
:103960004000C01A70470300FC331A6A002A03D0D3
:10397000DB69C018007D704701204042FBE710B5AD
:1039800004000069FEF74EFD22000023FC32936123
:10399000D361136287229200A4186360A360E3607E
:1039A00010BD872310B59B00C218D368002BFCD133
:1039B0000069FEF74EFD10BDF0200140303948424D
:1039C00048417047F0231B011940802306209B00CB
:1039D00099420AD00133FF330130994205D0802348
:1039E00002385B00994200D0002070470F20014050
:1039F0000020012903D00239481E8141481C70472C
:103A00008B23F0B5182685B002919B000400C05CA2
:103A1000330008214343324D1700EB18595600F08C
:103A200003FE304B0821E05C33004343EB1859564A
:103A300000F0FAFD2C4BE25C0393022A09D111330A
:103A4000E05CFF2805D008214643AE19715600F00E
:103A5000EBFD8C26B600A05DFF2819D0012100F0F7
:103A600053FD1822A35D21495A43AB56AD18DB0123
:103A700058188D21890060501D4901225B188E2144
:103A80008900635069688A408F21890062501A60FA
:103A90000122029B11002069FEF774FD390020000D
:103AA000FFF790FF390005002000FFF79FFF390066
:103AB00006002000FFF780FF3300009029002069F6
:103AC0000122FEF77FFC0B4B2069E25C039BE15C6B
:103AD000FEF795FC2069FEF7B2FC05B0F0BDC046CC
:103AE000144D00002D0200002F0200001844004178
:103AF000144400412E020000802210B50400520040
:103B0000002101F000F823000022FC335A6020005D
:103B10009A60DA6010BD0000F7B51D0008AB1B7895
:103B20000400009309AB1B78160001930023436047
:103B3000FA239B008360114B0F000833036014309D
:103B4000FFF7DAFF20002130FF30FFF7D5FF8B238E
:103B50006A469B002761E654094B1278E554094BED
:103B60002000E2546A46084B1279E2548C22313B21
:103B7000FF3B9200A3541032A354FEBD2C51000011
:103B80002D0200002E0200002F020000F7B5EFF317
:103B9000108300930123019372B680260200FF2553
:103BA000019BFC327600013B5C1C0FD0D4685F1E89
:103BB000B44209D054680155546801342C40546013
:103BC000D4680134D460EEE73B00EDE7684601932A
:103BD000FEF76FFFF7BD13B5EFF3108300930123DA
:103BE000019372B6019B5A1E0192002B15D003005F
:103BF000FC33DA68002A0DD09A68845C9A68013236
:103C0000D2B29A60DA68013ADA606846FEF751FF8C
:103C1000200016BD01246442F7E701246846FEF740
:103C200048FF6442F4E710B504000069FEF72FFC7A
:103C3000002805D02069FEF73AFC2069FEF72CFC2D
:103C40002069FEF714FC00281BD02069FEF72FFC2A
:103C5000010020001430FFF799FF8C239B00E35CE8
:103C6000FF2B0ED02300FC331A6A80235B009B1AC3
:103C7000092B06DC8D238F229B009200E358A2586B
:103C80001A602069FEF70EFC00280ED087239B00E7
:103C9000E318DB68002B14D020002130FF30FFF741
:103CA0009AFFC1B22069FEF706FC2069FEF7E4FB2B
:103CB000002805D02069FEF7E3FB2069FEF7D3FB5F
:103CC00010BD2069FEF705FCEFE70000F8B5040021
:103CD00000690D00FEF7E6FB87239B00E61800282D
:103CE00002D0F368002B34D001278022F368520001
:103CF000934223D1EFF310833B4210D1174B5B6803
:103D0000DB05DB0DF1D0103B5BB2002B10DAF13A92
:103D10001340083B9B08124A9B009B181B682069B4
:103D2000FEF7C0FB0028E0D02000FFF77CFFDCE7B7
:103D30009B08C0330B4A9B009B58F0E720002130C2
:103D4000FF302900FFF722FF2069FEF7BEFB0120AC
:103D5000F8BD29002069FEF7AEFBF8E700ED00E0B2
:103D60001CED00E000E100E010B504001430FFF7A6
:103D700032FF8C239B00E35CFF2B0ED02300FC332F
:103D80001A6A80235B009B1A0A2B06DD8E238F2282
:103D90009B009200E358A2581A6010BDF7B501923B
:103DA0001822162442433F4B07009B181C570091D2
:103DB000631C6ED0102C6CD03B4B3C4E1D68002D0C
:103DC00027D1290044223A4800F09DFE29004422D0
:103DD000384800F098FE1022374B38491D60CA67FA
:103DE000C021C120364B49005A5080001958FF3578
:103DF000A94319501A60334B334A5A800223327850
:103E0000134333707378DB09012BFBD00122264B5F
:103E10001A600125A540736900212B4373613800A6
:103E200000F002FC009B002B31D00027224B2049E0
:103E30009C461B68BA00BB421DD16046013303603B
:103E40008D501C4B00999950072C19DD0123083C1B
:103E5000A4000721A140154A9B009B189A698A4338
:103E60009A61019A042A12D81000996900F08AFC1C
:103E70000B12141618008858A842E1D00137D9E770
:103E8000A4000023E5E70522A2400A439A61ADB2EF
:103E9000F560F7BD0422F7E70322F5E70222F3E716
:103EA0000122F1E7144D0000180A0020001800401C
:103EB000D4090020900900201C0A002004E100E041
:103EC00000E100E0000C004005400000F8B50024CF
:103ED000094B1B68A34200D8F8BD084E084FA50047
:103EE0003369EA591A4204D0064BEB589847EB590C
:103EF00033610134ECE7C0461C0A00200018004082
:103F0000D40900209009002070B50E0000254468F7
:103F1000002C0BD0236831005B68200098470028F4
:103F200002DB2D18E468F3E701256D42280070BD1F
:103F300070B50D004468002C08D0236829009B68E8
:103F400020009847002802D1E468F4E7200070BD03
:103F500070B50D004468002C07D0236829002000AC
:103F6000DB689847E4682D18F5E72C7070BD70B5D4
:103F70000D004468002C08D0236829001B6820002D
:103F80009847002802D1E468F4E7200070BDF8B536
:103F900042788B790D00017A9B18040000208B4237
:103FA00022DC6368834219D16560002623786A7138
:103FB000EA792B719B182370AB79B34213D9AB68A4
:103FC000B7006078DF19FFF7FBFA3B680136036042
:103FD0006378F6B201336370EEE70B00D96800290D
:103FE000FBD1DD60E1E70120F8BD000070B50126DE
:103FF000054D064C2B68334203D12000FFF7D8FA59
:104000002E60200070BDC046200A0020240A002037
:10401000F7B506000D000C008B180193019B671B80
:104020009C4207D0336821781B68300098470134E0
:104030000028F3D13800FEBD70B5040008000D0063
:1040400000F024FE2368020029005B6820009847E6
:1040500070BD10B50B1E02D0FFF7EEFF0300180075
:1040600010BD10B5FFF7F5FF10BD10B503681B6854
:10407000984710BD10B50249FFF7DEFF10BDC046DE
:104080006051000070B50400FFF7E3FF0500200059
:10409000FFF7F0FF401970BD70B50500FFF7E5FFB1
:1040A00004002800FFF7E6FF201870BDFEE70000BF
:1040B000034B10B51B68002B00D0984710BDC046BD
:1040C000300A002070B50F490F4CA14204D100F016
:1040D000C1F800F097F8FEE70C4D00238D42F6D0B2
:1040E000CA18E818A24205D3094B8242EFD0094909
:1040F000002204E0006804331060F1E704C38B423F
:10410000FCD3E4E70000002090000020685100008C
:1041100090000020480A002010B500F06FF8002839
:1041200001D100F055F810BD014B18607047C04632
:10413000300A0020014B18687047C046340A00203E
:10414000F7B51348012284461249134C8E68636800
:1041500005689B0E1340019288686268019F920E69
:104160003A4067463F6893420ED1BD420CD1864229
:104170000AD35B19FA254868AD00861B07486B43D4
:104180007043000DC018FEBD3D0013000600E3E7BC
:10419000340A002010E000E000ED00E0555500007A
:1041A00070B5041E10D0FFF7CBFF050000F025F816
:1041B000FFF7C6FF054B401B9842F7D9FA23013C95
:1041C0009B00ED18002CF3D170BDC046E703000042
:1041D00010B5034A13680133136000F097FA10BD5D
:1041E000340A002010B5002806D03023032158439C
:1041F00000F0D2FA0138FDD110BD704700207047A1
:104200007047000010B500F0D5F800F03BFCFFF758
:10421000F7FF0120FFF7C4FF084C2000FFF7E0FA8A
:104220002000FEF723FDFEF725F8FDF767FF044B9E
:10423000002BFAD000E000BFF7E7C046D40300200F
:104240000000000010B500F041FC10BD10B500F0FA
:1042500047FC10BD1E2270B546484749436893434A
:104260001C3A1343436008238C6923438B61434CFE
:10427000434B9C829C8A14439C82DC681442FCD091
:104280000124404A14701578254203D055786DB248
:10429000002DF8DB01249460547864B2002CFBDB21
:1042A000394C5460547864B2002CFBDB8224E40166
:1042B0005480547864B2002CFBDB02249C840E34BE
:1042C000DD682542FCD0314CDC621024DD682542DB
:1042D000FCD09D8C2E4C2C439C841024DD68254200
:1042E000FCD002249D8C80262C439C844024DD68D5
:1042F0003542FCD0DD682542F9D01024DD68254226
:10430000FCD000249460547864B2002CFBDB214C78
:104310005460547864B2002CFBDB1C6A1E4D2C40A8
:1043200080251C621C6AAC431C62032393601B4BF8
:10433000536053785BB2002BFBDB0023FF240B722E
:10434000174A4B728B72CB72164B1A60164B174A78
:104350001B6811689A065B01C90E2340520F1202B6
:104360000B431343124A138580234268134343606F
:1043700070BDC04600400041000400400C06000033
:1043800000080040000C004001050100B905FF7D58
:10439000040A000000070300FFFCFFFF0306010002
:1043A000006CDC021000002024608000206080008F
:1043B00000400042FA21314B10B51868890000F026
:1043C000EBF92F4B0138984256D82E492E4A4860B7
:1043D000C020136A00061B021B0A03431362002459
:1043E00007238C600B608021136A09061B021B0ADD
:1043F0000B431362FC22254B196A0A431A62FC2202
:10440000196A92010A431A62A022196AD2020A4367
:104410001A62E0B20021013400F076F8162CF8D1CF
:104420001B4B1C005A7852B2002AFBDB194A5A80F7
:10443000194B1A00597EC9090129FBD0E421C90092
:1044400099803F21D970537EDB09012BFBD0C0231B
:1044500000205B011361907000F024F863785BB278
:10446000002BFBDB0D4B0E4A6380D379DB09012B5C
:10447000FBD04123537010BDFEE7C0461000002062
:10448000FFFFFF0010E000E000ED00E0000400404E
:10449000000C00401E40000000400042214000008F
:1044A00000480042164A00B51300517EC90901298F
:1044B000FBD00138042816D81969124A0A400F2186
:1044C0001A615A788A4300F05DF90308060B03006D
:1044D000110001220A435A7000BD11000322F9E7BE
:1044E00011000222F6E7F02311691B050B430F218F
:1044F000136153788B43190002230B435370EBE78E
:1045000000400042FFFFFFF0182330B51D000400FB
:1045100045430820204A55192856013014D0032954
:1045200012D808006343D156D31800F02BF90228A3
:104530000E1B5868CB010221184A9B181A184032EA
:104540001170012282405A6030BD5868CB010621AB
:10455000124A9B181A1840321170012282405A6088
:104560009A61F1E75868CB0106210C4A9B181A188A
:1045700040321170012282405A605A61E4E7586863
:10458000CB010221054A9B181A18403211700122F2
:1045900082409A60D8E7C046144D000000440041B4
:1045A0001823F0B508245843114A13181C57013436
:1045B0001BD0012635005F688356BD400D4ADB01E4
:1045C0009A18906805420BD10C00601E8441D219E4
:1045D0004032107834400336A400B04320431070BA
:1045E000044A9B18002901D15D61F0BD9D61FCE783
:1045F000144D000000440041182310B50824434323
:1046000007490020CA181457013408D05B560549E1
:10461000DB015B18186A5368D8400123184010BDAD
:10462000144D00000044004118224243F8B52C4EBE
:104630000300B218127A52B2140001320ED0481C94
:1046400000240C280AD800F09DF807202020202004
:104650002020200B0B0B0B00012464422000F8BD2E
:10466000092905D10021D8B2FFF74EFF0024F5E754
:104670000A2902D1D8B20839F6E700240B29EDD176
:10468000D8B20A39FFF740FFE8E718204343F21891
:104690005568F3562C00134ADB016E0817389B1837
:1046A000C9B204409E19002C0DD00F243036327848
:1046B000090122401143C9B25B19317040331A78A5
:1046C00010431870D2E732000F27303216785B198A
:1046D000BE433143117040331A7810431870BDE760
:1046E000144D00000044004110B50400FEF724F909
:1046F000014B1C6010BDC046140000200122024B7B
:1047000052421A607047C04614000020164A10B585
:104710001368591C26D0013B1360002B22D172B6BE
:10472000124B134A0433934213D9124A0121100049
:10473000147D0C42FCD02021148BFF319B085B00C0
:1047400021431183D3610C4B13800123027D1A4254
:10475000FCD0BFF34F8F094B094ADA60BFF34F8F8C
:10476000C046FDE710BDC046140000200020000038
:10477000030200000040004102A5FFFF00ED00E041
:104780000400FA0502B4714649084900095C490071
:104790008E4402BC7047C046002243088B4274D34B
:1047A00003098B425FD3030A8B4244D3030B8B4232
:1047B00028D3030C8B420DD3FF22090212BA030C3B
:1047C0008B4202D31212090265D0030B8B4219D31C
:1047D00000E0090AC30B8B4201D3CB03C01A52413C
:1047E000830B8B4201D38B03C01A5241430B8B4284
:1047F00001D34B03C01A5241030B8B4201D30B036D
:10480000C01A5241C30A8B4201D3CB02C01A524193
:10481000830A8B4201D38B02C01A5241430A8B4256
:1048200001D34B02C01A5241030A8B4201D30B023F
:10483000C01A5241CDD2C3098B4201D3CB01C01A59
:10484000524183098B4201D38B01C01A5241430963
:104850008B4201D34B01C01A524103098B4201D351
:104860000B01C01A5241C3088B4201D3CB00C01ABE
:10487000524183088B4201D38B00C01A5241430836
:104880008B4201D34B00C01A5241411A00D201465B
:10489000524110467047FFE701B5002000F0F0F8E4
:1048A00002BDC0460029F7D076E7704703460B43A8
:1048B0007FD4002243088B4274D303098B425FD319
:1048C000030A8B4244D3030B8B4228D3030C8B4245
:1048D0000DD3FF22090212BA030C8B4202D312122B
:1048E000090265D0030B8B4219D300E0090AC30B00
:1048F0008B4201D3CB03C01A5241830B8B4201D3AD
:104900008B03C01A5241430B8B4201D34B03C01A95
:104910005241030B8B4201D30B03C01A5241C30A0D
:104920008B4201D3CB02C01A5241830A8B4201D37E
:104930008B02C01A5241430A8B4201D34B02C01A68
:104940005241030A8B4201D30B02C01A5241CDD20D
:10495000C3098B4201D3CB01C01A524183098B4258
:1049600001D38B01C01A524143098B4201D34B0141
:10497000C01A524103098B4201D30B01C01A5241A4
:10498000C3088B4201D3CB00C01A524183088B422B
:1049900001D38B00C01A524143088B4201D34B0014
:1049A000C01A5241411A00D2014652411046704786
:1049B0005DE0CA0F00D04942031000D3404253408B
:1049C00000229C4603098B422DD3030A8B4212D34B
:1049D000FC22890112BA030A8B420CD3890192117D
:1049E0008B4208D3890192118B4204D389013AD0BA
:1049F000921100E08909C3098B4201D3CB01C01A8F
:104A0000524183098B4201D38B01C01A52414309A1
:104A10008B4201D34B01C01A524103098B4201D38F
:104A20000B01C01A5241C3088B4201D3CB00C01AFC
:104A3000524183088B4201D38B00C01A5241D9D214
:104A400043088B4201D34B00C01A5241411A00D295
:104A50000146634652415B10104601D34042002B91
:104A600000D54942704763465B1000D3404201B510
:104A7000002000F005F802BD0029F8D016E77047C5
:104A80007047C04670B500260C4D0D4C641BA41039
:104A9000A64209D1002600F011F90A4D0A4C641B08
:104AA000A410A64205D170BDB300EB58984701365B
:104AB000EEE7B300EB5898470136F2E77C000020A0
:104AC0007C0000207C0000208C00002010B5034BEF
:104AD0000100186800F06AF810BDC04618000020F8
:104AE00010B5034B0100186800F016F810BDC04661
:104AF00018000020002310B59A4200D110BDCC5CF4
:104B0000C4540133F8E703001218934200D17047F0
:104B100019700133F9E7000070B50500002910D0C5
:104B20000C1F2368002B00DAE418280000F0B5F809
:104B30001D4A1368002B05D163601460280000F043
:104B4000ADF870BDA34209D9216860188342F3D142
:104B500018685B6841182160EEE713005A68002A64
:104B600001D0A242F9D919685818A0420BD1206887
:104B70000918581819608242E0D11068526841182B
:104B800019605A60DAE7A04202D90C232B60D5E7FE
:104B900021686018824203D1106852684118216070
:104BA00062605C60CAE7C046380A0020032370B523
:104BB000CD1C9D43083506000C2D1ED20C25A942A4
:104BC0001DD8300000F069F8254A1468210000293A
:104BD00019D1244C2368002B03D1300000F044F895
:104BE00020602900300000F03FF8431C2BD10C233B
:104BF0003000336000F052F803E0002DDFDA0C23C0
:104C00003360002070BD0B685B1B19D40B2B03D9DC
:104C10000B60CC18256003E04B688C420DD113600B
:104C2000300000F03BF8200007220B30231D90439A
:104C3000C31AE7D05A42E250E4E763600C00EFE7A2
:104C40000C004968C3E70323C41C9C43A042E1D085
:104C5000211A300000F008F8431CDBD1C7E7C0463A
:104C6000380A00203C0A0020002370B5064C0500DD
:104C70000800236000F014F8431C03D12368002BC4
:104C800000D02B6070BDC046440A00200023C25CE7
:104C90000133002AFBD1581E70477047704700004F
:104CA000044A1368002B00D1034B18181060180039
:104CB0007047C046400A0020480A0020F8B5C046A8
:104CC000F8BC08BC9E467047F8B5C046F8BC08BCA6
:104CD0009E46704772756E6E696E6720756172745C
:104CE0005265636569766500524255462046554CCB
:104CF0004C00676F7420736F6D657468696E672010
:104D0000696E2072427566007265636569766564D6
:104D1000203A00000000000016000000080000001B
:104D20001C000000FF00000400040600000000005A
:104D300017000000080000001C000000FF00010434
:104D400001040700000000000A0000000800000045
:104D50001C000000120000010001FF000000000024
:104D60000B000000080000001C00000013000101FF
:104D70000101FF00010000000A000000080000001F
:104D80001C000000FF00000500050A0001000000F3
:104D90000B000000080000001C000000FF000105DF
:104DA00001050B00000000001400000008000000D6
:104DB0002C000000FF0002000200040000000000C0
:104DC00015000000080000002C000000FF00030098
:104DD00003000500000000001000000002000000B9
:104DE0001C000000FF0000020002000000000000A4
:104DF000110000000200000004000000FF00FFFF9F
:104E0000FFFF01000000000013000000020000008E
:104E10001C000000FF0001030103FF000000000070
:104E200008000000030000001C000000100000004B
:104E30000000100000000000090000000300000056
:104E4000040000001100FFFFFFFFFF000100000051
:104E5000170000000300000004000000FF00FFFF37
:104E6000FFFFFF000100000016000000030000002B
:104E700004000000FF00FFFFFFFFFF000000000034
:104E80000200000001000000060000000000FFFF1B
:104E9000FFFFFF0001000000020000000100000011
:104EA000040000000A00FFFFFFFF020001000000F5
:104EB0000300000001000000040000000B00FFFFE1
:104EC000FFFF0300000000000400000001000000DC
:104ED0001C000000040000000000FF0000000000B3
:104EE00005000000010000001C000000050001009A
:104EF0000100FF00000000000600000001000000AB
:104F0000040000000600FFFFFFFFFF00000000009C
:104F10000700000001000000040000000700FFFF80
:104F2000FFFFFF0000000000180000000600000066
:104F300000000000FF00FFFFFFFFFF000000000077
:104F4000190000000600000000000000FF00FFFF45
:104F5000FFFFFF000000000012000000080000003A
:104F600004000000FF00FFFFFFFFFF000000000043
:104F7000030000000800000004000000FF00FFFF25
:104F8000FFFFFF00000000000C0000000300000015
:104F900000000000FF00FFFFFFFFFF000000000017
:104FA0000D0000000300000000000000FF00FFFFF4
:104FB000FFFFFF00000000000E00000008000000DE
:104FC00000000000FF00FFFFFFFFFF0000000000E7
:104FD0000F0000000300000000000000FF00FFFFC2
:104FE000FFFFFF00000000001B00000008000000A1
:104FF00000000000FF00FFFFFFFFFF0000000000B7
:105000001C0000000800000000000000FF00FFFF7F
:10501000FFFFFF0001000000080000000800000082
:1050200000000000FF00FFFFFFFFFF000100000085
:10503000090000000800000000000000FF00FFFF62
:10504000FFFF090000000000000000000800000051
:1050500000000000FF00FFFFFFFFFF000000000056
:10506000010000000800000000000000FF00FFFF3A
:10507000FFFFFF0000000000000000007526000098
:10508000AD28000071260000912800007128000062
:10509000E9280000CD2800006D2600006F260000E2
:1050A0005D2800000D2900009F28000089260000CF
:1050B000F1250000B527000019260000F0FFFFFFD2
:1050C000000000004D280000A52700003529000041
:1050D0005D2600000000000000000000692B0000B9
:1050E0006F3700004737000053370000D129000018
:1050F000D3290000C12A000041726475696E6F20D7
:105100004D4B523130303000040309044172647554
:10511000696E6F204C4C430012010002EF02014007
:1051200041234E8000010102030100000000000045
:1051300000000000CD3C0000114000005739000085
:10514000A339000051390000693D000067390000B3
:1051500041390000013A00007F3900003D3900006C
:085160000D0A00000000000030
:10516800FFFFFFFF00C2010000000800FFFFFFFF74
:1051780040420F00FFFFFFFF1C000020000000005E
:105188000000000000000000000000000000000017
:105198000000000000000000000000000000000007
:1051A80000000000000000000000000000000000F7
:1051B80000000000000000000000000000000000E7
:1051C80000000000000000000000000000000000D7
:1051D800000000000000000000000000DD200000CA
:1051E8003D230000BD290000D1370000B520000094
:04000003000040C5F4
:00000001FF
